:020000040800F2
:10000000502B0020B902000825330008CF29000832
:10001000FD31000891230008B951000800000000DC
:10002000000000000000000000000000A5450008DE
:100030001124000800000000470300080D490008D3
:10004000D3020008D3020008D3020008D30200083C
:10005000D3020008D3020008D3020008D30200082C
:10006000D3020008D3020008D3020008D30200081C
:10007000D3020008D3020008D3020008D30200080C
:10008000D3020008D3020008D3020008D3020008FC
:10009000D3020008D3020008D3020008D3020008EC
:1000A000D3020008D3020008D3020008D3020008DC
:1000B000D3020008D3020008D3020008D3020008CC
:1000C000D3020008D3020008D3020008D3020008BC
:1000D000D3020008A14D00081D4E0008994E0008EB
:1000E000D3020008D3020008D3020008D30200089C
:1000F000D3020008D3020008D3020008D30200088C
:10010000D3020008D3020008D3020008D30200087B
:10011000D3020008D3020008D3020008D30200086B
:10012000D3020008D3020008D3020008D30200085B
:1001300000F002F800F0B0F80AA090E8000C824449
:100140008344AAF10107DA4501D100F0A5F8AFF226
:10015000090EBAE80F0013F0010F18BFFB1A43F0A5
:10016000010318476CA700008CA700000A444FF059
:10017000000C10F8013B13F0070408BF10F8014B06
:100180001D1108BF10F8015B641E05D010F8016B4B
:10019000641E01F8016BF9D113F0080F1EBF10F8AF
:1001A000014BAD1C0C1B09D16D1E58BF01F801CBD2
:1001B000FAD505E014F8016B01F8016B6D1EF9D555
:1001C0009142D6D37047000000230024002500266A
:1001D000103A28BF78C1FBD8520728BF30C148BFAA
:1001E0000B6070476E2900F0D381702900F0B9824E
:1001F000662909F0DA82652909F0D782672909F0B2
:10020000D482612909F0D38203681B0A28BF41F018
:100210008001692900F08081642900F07D817529C1
:1002200000F07A816F2900F04682782900F08582FB
:10023000E92901F06581E42901F06281F52901F0E5
:100240005F81EF2900F04382F82900F0848203687F
:10025000DB0928BF41F08001632901F01C8173296B
:1002600001F02181E32901F03F81F32901F044816C
:10027000002070471FB501F0A9F9040000200021FB
:1002800008F06AF9401C60600020002108F04EF977
:10029000E0601FBD10B510BD01F0A0FA1146FFF7D8
:1002A000E9FF06F06EFD01F0BEFA03B4FFF7F2FFBE
:1002B00003BC05F006F800000948804709480047DC
:1002C000FEE7FEE7FEE7FEE7FEE7FEE7FEE7FEE706
:1002D000FEE7FEE704480549054A064B7047000063
:1002E000294900083101000850250020502B00202A
:1002F0005027002050270020EFF3108072B670477F
:1003000080F310887047204C204D25604FF000048A
:1003100084F309881E4C4FF0010525701D4C4FF0E9
:100320008055256062B6FEE730B41A4C4FF0805518
:10033000256030BC704730B4164C4FF080552560B6
:1003400030BC704700BF72B6EFF3098028B1203887
:1003500080E8F00F10490968086000B50F48804731
:100360005DF804EB0E480F490A7802700A480E49FE
:100370000A680260106890E8F00F203080F3098866
:100380004EF0040E62B6704720ED00E00000FFFF63
:100390000E01002004ED00E0140100207D3800086B
:1003A00003010020040100201C010020704710B54B
:1003B0004C1084EA530404D54042C1F1000138BF17
:1003C000491E1B4204D55242C3F1000338BF5B1ED5
:1003D00000F0D1FB14F0804F04D04042C1F1000185
:1003E00038BF491E14F0004F04D05242C3F100033D
:1003F00038BF5B1E10BD00000FB4044910B503AA3E
:10040000029801F055F810BC5DF814FBC8000020FC
:100410000FB4044910B503AA029801F049F810BCC2
:100420005DF814FBC80000200FB41CB5084B06AAE9
:100430007B4469460090059801F00BF804460020C3
:10044000694601F019F820461CBC5DF814FB000059
:100450004510000070B5044685690068C10601D5E5
:10046000302600E02026C00707D070BDD4E9012166
:1004700030469047206A401C20626D1EF6D570BD44
:1004800070B5044685690078C00707D170BDD4E90E
:10049000012120209047206A401C20626D1EF6D565
:1004A00070BD09684A0501D540B27047C905FCD541
:1004B00000B2704709684A0501D5C0B27047C90546
:1004C000FCD580B2704770B50C460546012A05D0B0
:1004D0002878800600D5EA69002302E0012305E0C0
:1004E0005B1C934202D2E05C0028F9D1A869E618AF
:1004F000C01AA861286A184428622846FFF7AAFF94
:1005000004E0D5E9012114F8010B9047B442F8D377
:100510002846FFF7B5FF70BD2DE9F04106460024DF
:1005200010687529314616A510D0FFF7BAFF0028CC
:1005300002DA404213A507E031688A0701D512A507
:1005400002E0490704D511A5012401E0FFF7B2FF3D
:1005500000210A2206F1240709E0B0FBF2FCB0FBFF
:10056000F2F302FB1C00303078541846491C002876
:10057000F3D123462A463046BDE8F04100F07DBB6A
:10058000000000002D0000002B00000020000000F3
:1005900011680268006A530501D508700AE0D305A6
:1005A00001D5088006E0130603D5C217C1E9000291
:1005B00000E00860012070472DE9FF5F15468A467C
:1005C0000446DFF8AC80F8440027D8E900103E4626
:1005D000CDE9001010E03AF816106A4602A800F0C3
:1005E000CDFF411C07D02178890603D5E26939186F
:1005F00091420DD80744761C2078800602D5E06928
:10060000B84205DDAE42E6DB3AF816000028E2D13A
:10061000A069C01BA0612046FFF71CFFD8E90010AD
:10062000CDE90010002017E03AF818106A4602A839
:1006300000F0A4FFB0F1FF3F81460BD000250DF183
:10064000080B05E0D4E901211BF8050090476D1C5B
:100650004D45F7D308F10100B0428046E4DB206A43
:10066000384420622046FFF70BFFBDE8FF9F0000E3
:1006700036A0000030B4002100F1240408E002F0AC
:100680000705D208303542EA4372DB086554491C3D
:1006900052EA0305F3D10468002310A2250707D509
:1006A000A40600D421B1C46901230DA2641EC46153
:1006B00030BC00F0E2BA10B5044621461068FFF7DE
:1006C000F9FE02462046BDE810400023D2E7D21DC5
:1006D00022F00701D1E90023CCE700000000000070
:1006E00030000000F0B40D460188090502D5214C08
:1006F0007C4402E01F4C7C440E34002100F12406AF
:1007000008E002F00F071209E75D42EA03721B09D5
:100710007754491C52EA0307F3D1027800231207E9
:1007200004D5702D06D009B1022311342246F0BC45
:1007300000F0A3BA01231034F8E770B504460D4663
:1007400021461068FFF7B6FE024629462046BDE85E
:1007500070400023C6E7D21D22F00703D3E900232F
:10076000C0E70368126843F0200303600823C361F5
:100770000023B7E7149F00002DE9F05F8946044687
:100780004FF0000ADFF874B1FB44C0F820A0204607
:10079000E1688847002874D0252806D0D4E90121D3
:1007A0009047206A401C2062F1E700265F46204601
:1007B000E16888472028054607DB312D05D27819E6
:1007C00010F8200C08B10643F1E7B00701D526F078
:1007D0000406C4F81CA00027C4F818A02A2D09D0CC
:1007E000284604F067FD38B304EB8708303DC8F8AD
:1007F000185019E059F8041B204604EB8702916158
:10080000E1688847012F054618D1E069002820DA01
:1008100026F020061DE0D8F8180000EB800005EB5C
:1008200040003038C8F818002046E168884705467F
:1008300004F040FD0028EED1012F0AD02E2D08D162
:100840002046E16888477F1C0546022F46F02006B7
:10085000C4DBA069002803DA404246F00106A0612B
:10086000F00701D026F010066C2D0BD0682D09D0B2
:100870004C2D39D06A2D35D0742D35D07A2D33D00A
:1008800016E038E0E1682F4620468847B842054622
:1008900009D16C2F26D04FF48060E16806432046D2
:1008A0008847054604E06C2F1AD04FF48070064349
:1008B0000DB3A5F14100192802D8203546F4006691
:1008C0004A462946204626604E46FFF78BFC80B1FB
:1008D00001280BD0F61D26F0070000F1080956E7A5
:1008E0004020E4E78020D8E70020D6E706F104099D
:1008F0004DE7284652E7206ABDE8F09FA49E00001D
:1009000010B5431E13F8014F002CFBD105E011F880
:10091000014B002C03F8014B03D0521EF7D20021EB
:10092000197010BD30B505460B462A4613F8014B29
:1009300012F8010B08B1A042F8D01CB1002802D077
:100940006D1CF1E7284630BD40EA010310B59B0756
:100950000FD1042A0DD310C808C9121F9C42F8D029
:1009600020BA19BA884201D9012010BD4FF0FF30DA
:1009700010BD1AB1D30703D0521C07E0002010BDF0
:1009800010F8013B11F8014B1B1B07D110F8013B7C
:1009900011F8014B1B1B01D1921EF1D1184610BD5D
:1009A00010B5431C02E010F8011B71B18107FAD1A8
:1009B0004FF0013202C88C1A8C4314EAC211F9D0EC
:1009C000C01A0A0603D0C01E10BDC01A10BD0A040A
:1009D00001D0801E10BD0902FCD0401E10BD032AAC
:1009E00040F2308010F0030C00F0158011F8013B4C
:1009F000BCF1020F624498BF11F801CB00F8013B33
:100A000038BF11F8013BA2F1040298BF00F801CBF6
:100A100038BF00F8013B11F0030300F02580083ACD
:100A2000C0F0088051F8043B083A51F804CBA0E824
:100A30000810F5E7121D5CBF51F8043B40F8043B79
:100A4000AFF30080D20724BF11F8013B11F801CBAE
:100A500048BF11F8012B24BF00F8013B00F801CB7F
:100A600048BF00F8012B704710B5203AC0F00B804A
:100A7000B1E81850203AA0E81850B1E81850A0E8A2
:100A80001850BFF4F5AF5FEA027C24BFB1E81850FC
:100A9000A0E8185044BF18C918C0BDE810405FEA6C
:100AA000827C24BF51F8043B40F8043B08BF7047E8
:100AB000D20728BF31F8023B48BF11F8012B28BFED
:100AC00020F8023B48BF00F8012B704702F0FF03FB
:100AD00043EA032242EA024200F002B84FF0000269
:100AE0000429C0F0128010F0030C00F01B80CCF140
:100AF000040CBCF1020F18BF00F8012BA8BF20F8AE
:100B0000022BA1EB0C0100F00DB85FEAC17C24BF01
:100B100000F8012B00F8012B48BF00F8012B7047AB
:100B20004FF0000200B5134694469646203922BF86
:100B3000A0E80C50A0E80C50B1F12001BFF4F7AFD1
:100B4000090728BFA0E80C5048BF0CC05DF804EBB3
:100B5000890028BF40F8042B08BF704748BF20F821
:100B6000022B11F0804F18BF00F8012B704770471F
:100B700070477047704753EA020C00F069802DE916
:100B8000F04B4FF00006002B1FBFB3FA83F503FABA
:100B900005F424FA05F65E4012BF1643B2FA82F558
:100BA00002FA05F4C5F120051EBF22FA05FC44EA4D
:100BB0000C04203556EA044C4FEA144418BF641C58
:100BC0004FF000084FF00009904271EB030C39D34D
:100BD000002919BFB1FA81F701FA07F6B0FA80F7D8
:100BE00000FA07F6C7F120071EBF20FA07FC46EA05
:100BF0000C062037B6FBF4FCA7EB0507103F07F007
:100C00001F0BCBF120060CFA0BFB2CFA06F644BFA7
:100C1000B3460026202FA4BF5E464FF0000B5BEAD0
:100C2000060C08BF4FF0010B19EB0B09ABFB027C64
:100C300048EB0608C01B06FB02CC0BFB03CC71EB98
:100C40000C01C1E70B46024641464846BDE8F08B21
:100C500013B54FF000004FF00001AFF30080BDE886
:100C60001C40704710B500F0B5FC006810BD10B511
:100C7000044600F0AFFC046010BD2DE9F0470D46BE
:100C800099469246044600F124080168880604D576
:100C9000E06921F01001216000E00120A84201DD9F
:100CA000471B00E00027A1697A1902EB0900081A26
:100CB000A0612078C00602D42046FFF7CBFB0026B7
:100CC00008E0D4E901211AF806009047206A401C88
:100CD000761C20624E45F4DB2078C0060AD52046FB
:100CE000FFF7B8FB06E0D4E9012130209047206AE5
:100CF000401C2062381EA7F10107F4DC07E0D4E9AC
:100D0000012118F805009047206A401C2062281E27
:100D1000A5F10105F3DC2046FFF7B2FB20780006C1
:100D200002D50220BDE8F0870120FBE770472DE9DE
:100D3000FF4F0C461E464FF0FF378BB0D2E9000143
:100D4000DDF860800A908A46C1F30A5505B93D4630
:100D5000002108464FF00000BAF1000F00F44000F7
:100D600005DA00EB80004FF4400101EA50004FEA41
:100D70009059B9F1010F00DDB9460A9850EA4A00CE
:100D80000ED044F61050A5F2FF3545432F14B8F1AC
:100D9000000F1ED07542291E1EDDC9F100021CE0A5
:100DA000B8F1010F4FF0000001D0302103E0F24311
:100DB00005E02154401CB042FBDB304600220021FC
:100DC00021540B99C1F80880C1E900200FB0BDE89B
:100DD000F08FBD1B6D1CDEE74A4600DA694206A8AB
:100DE00000F082FC06AB93E8070003AB83E8070042
:100DF00050460A9900F060FD8DE80700A0F500500C
:100E00001F3800900398002D0ADD42F21F014A4668
:100E10000844002303A90390684600F0C9FF09E0D5
:100E2000A0F500504A461F38002303A903906846E6
:100E300000F0D3FF8DE807000004000C03D04FF052
:100E4000FF30410800E01046B8F1000F03D0002247
:100E5000009215461EE0751E05D400F0BFFB30322F
:100E600062556D1EF9D5B3460122084302D0002217
:100E70007F1C04E02078302801D100227F1E002A48
:100E8000099784D01DE0112D07DA00F0A7FB30325E
:100E900062556D1C50EA0102F5D1084302D000985A
:100EA000C8B10EE00021681E05E0235C625C63545B
:100EB0002254401E491C8142F7DBAB46A81B401E52
:100EC0000990002004F80B000B98099AC0F80880DC
:100ED000C0E9002B7AE711264FF0000857E72DE90B
:100EE000F04F88460446D21D22F0070191B0D1E9A7
:100EF0000001CDE90A0104F061F902460B98C00F28
:100F000001D02D2007E02068810701D52B2002E0C9
:100F1000202101EAC000032A099001D0072A05DB3D
:100F200003464146204600F09FFB0BE120788006F7
:100F300001D5E06900E00620B8F1650F814606D0D2
:100F4000B8F1660F18D0B8F1670F70D131E000200A
:100F5000B9F1110F009001DB112301E009F1010348
:100F60000AAA01A90CA8FFF7E2FEDDE90C70002631
:100F700009F10105834647E001204B4600904FF000
:100F800000470AAA01A90CA8FFF7D1FEDDE90DB0C0
:100F90000C995D46002610B909F101000D18B9EB56
:100FA000050003D4C0F1FF3609F10105A5EB0900E6
:100FB0002BE0B9F1010F01DA4FF001090020B9F17E
:100FC000110F0090484601DD112300E003460AAAF4
:100FD00001A90CA8FFF7ABFEDDE90C704D46002619
:100FE0008346207800070AD4AB4500DA5D4601A8A5
:100FF000012D04DD411911F8011C302907D04F459E
:1010000002DA17F1040F04DA012082460FE06D1EA8
:10101000EEE7002F02DCED1B3E4403E0781CA84203
:1010200000DD7D1CB81B00F1010A4FF0004720785D
:10103000000703D4AA4501DB4FF0FF3A0021B7F1C6
:10104000004F0DF143088DF8431024D002202B23CC
:10105000002F01DA7F422D230A21021EA0F1010098
:1010600000DC5FB197FBF1FC97FBF1F201FB1C7C0C
:1010700017460CF1300C08F801CDEEE7A8F101009D
:1010800003702188090501D5452100E06521A0F103
:10109000010800F8011C09980FA9A1EB0807FF1D22
:1010A00000B10120411901EBEA70A1693844081A26
:1010B000401EA0612078C00602D42046FFF7CAF97E
:1010C000099828B1D4E901219047206A401C206288
:1010D0002078C00622D52046FFF7BCF91EE0002E7E
:1010E00004DBB34502DD01A8805D00E03020D4E9D7
:1010F00001219047206A401C2062761CAAF1010061
:101100005FEA000A0AD100F061FAC0680168405C39
:10111000D4E901219047206A401C2062281EA5F1D5
:101120000105DCDC07E0D4E9012118F8010B904748
:10113000206A401C2062381EA7F10107F3DC20461C
:10114000FFF79EF9032011B041E600002DE9F04FB2
:1011500004460D46D21D22F0070089B0D0E9009761
:101160004846394604F02AF80246F80F01D02D23EC
:1011700007E02068810701D52B2302E0202101EA46
:10118000C0038DF820300BB1012000E00020032ABD
:10119000824601D0072A04DB2946204600F064FA83
:1011A0003FE12078800601D40D2500E0E569C7F312
:1011B0000A560D2D49DA00214FEA175B08464FF019
:1011C0000000002F00F4400007DA00EB80004FF42D
:1011D000400100EBD07001EA60008115012901DDBA
:1011E0004FF0FF3100224FEA850CBCF1180F06D3F7
:1011F0001346ACF118004FF08052C24003E04FF4A8
:10120000801323FA0CF30CF10C0CBCF1200F04D367
:10121000ACF1200C09FA0CF001E007FA0CF00029FF
:101220004FF0004801DD18B90FE00ED140450CD356
:1012300019EB02095F4121B9404502D19F4329EAD8
:101240000209BBEB175F00D0761C2088000502D591
:101250007B48784402E07A487844193808AA302359
:1012600002F80A30037C0AF10101002E0AF1020A99
:1012700053546A4602DC4FF0300101E04FF0310177
:101280004FF001088DF8001002D0A6F2FF3603E0FF
:1012900059EA470100D06B4E002D02DC2178090786
:1012A00004D54FF002082E218DF80110C44600210C
:1012B0000BE0C7F303433F01C35C491C6D1E02F8FA
:1012C0000830052908F1010801DA002DF1DC0021C0
:1012D0000CE000EB1973491C1B786D1E082902F8FD
:1012E00008304FEA091908F1010801DA002DF0DC95
:1012F00021688B0602D516E0A8F10108E04505DD5E
:1013000002EB080313F8013C302BF5D0B8F1000FC5
:1013100009DD02EB080313F8013C2E2B03D109076A
:1013200001D4A8F10108002D05DD3E2102F80810C6
:101330006D1E08F10108407C002E02F8080008F13B
:10134000010804DA2D20764202F8080002E02B2082
:1013500002F808000A214FF47A70864208F1010869
:101360000BDB96FBF0F3303302F8083096FBF0F31A
:1013700008F1010800FB136601E0642E0CDB642019
:1013800096FBF0F3303302F8083096FBF0F308F1E7
:10139000010800FB136601E00A2E06DB96FBF1F064
:1013A000303002F8080008F1010896FBF1F001FB6B
:1013B0001060303002F80800A16908F1010808EB5C
:1013C000050202EB0A00081AA0612078C00602D4C8
:1013D0002046FFF73FF8216A08AE01EB0A002062C1
:1013E00004E0D4E9012116F8010B9047BAF1010A93
:1013F000F7D22078C00602D52046FFF72BF86E46BC
:1014000009E016F8010B3E280FD0D4E901219047DE
:10141000206A401C2062B8F10108F2D22046FFF792
:101420002FF809B00320BDE8F08F206A284420621D
:1014300003E0D4E90121302090476D1EEBD3F8E79B
:101440005594000002FCFFFF01694A1C0261087804
:10145000704700B58FB0CDE90131002105910549F4
:101460007944CDE9031011466846FFF785F90FB0BE
:1014700000BD0000E5FFFFFF0A6802F8010B0A60EB
:10148000704710B5436913B1AFF3008001E0FFF777
:101490001AF8012010BD127800F124010A70002210
:1014A0004A700122EDE711684FF0FF32E9E70000D2
:1014B000074B70B50D467B44FFF7CBFF044628462B
:1014C00000F084F910B14FF0FF3070BD204670BDC0
:1014D0000352000010B5436913B1AFF3008001E07F
:1014E000FFF76AF8012010BD128800F12401828400
:1014F0000022C2840122EDE711684FF0FF32E9E7D4
:101500002DE9F0418046D21D22F007020025D2E9E4
:101510000002F52915A614D0011E72F1000106DAA9
:101520000023D0EB030063EB020211A608E0D8F819
:1015300000108B0701D50FA602E0490701D50EA6C2
:1015400001251146002408F1240704E000F046F8C4
:1015500030323A55641C50EA0102F7D12B4632462C
:1015600021464046BDE8F041FFF787BB0000000080
:101570002D0000002B0000002000000070B5164672
:101580000C46054600F01AF8036893F8010101289B
:1015900006D0FF2C0FD8185D68B101202C7070BDEB
:1015A000D3F807013246214603F2071303442846C5
:1015B000BDE8704018474FF0FF3070BD10B500F027
:1015C00005F8001D10BD00BF916F00000048704776
:1015D0001025002000487047F024002030B5B0F1FD
:1015E0000A024FEA900E71F100034EEA817EB0EBE1
:1015F0000E0061EB91014FEA101E4EEA017E10EBE6
:101600000E0041EB11114FEA102E4EEA016E10EB65
:101610000E0041EB11214FEA104E4EEA014E10EB45
:101620000E0041EB1141401841F100014FEAD0009A
:1016300040EA41704FEAD10110EB80054FEA810486
:1016400044EA907444EB01046D1944EB0404521B0A
:10165000A3414FF0000348BF0A3200D530BD401C03
:1016600041F1000130BD00002DE9F0411F46044664
:1016700003260168072A01F4006004DB08B116A5FF
:1016800005E016A503E008B115A500E015A521F0B9
:1016900010002060A069C01EA0610FB1401EA061B3
:1016A0002046FEF7D7FE4FB1D4E9012138469047D6
:1016B000206A401C2062C01C206206E0206AFAE713
:1016C000D4E9012115F8010B9047761EF8D2204687
:1016D000FEF7D6FEBDE8F0814E414E006E616E0011
:1016E000494E4600696E66002DE9F0478146164670
:1016F0008AB0354878440DC88DE80D0032487844EA
:10170000801C03AC0DC884E80D0041F69B300844F2
:10171000372190FBF1F290FBF1F5A5F1800501FB7B
:1017200012041B3C02D56442012000E00020DFF8D7
:1017300098A080460027FA44AAF1BE0A0EE0E0070E
:101740000AD03246684607EB470101230AEB8101C4
:1017500000F043FB8DE8070064107F1C002CEED1E5
:10176000194F7F44AE3F19E0E80715D007EB04108E
:101770000DF1180A90E80E008AE80E00C068F042E9
:1017800001D1981908903246012306A903A800F058
:1017900024FB03AB83E807006D10641C002DE3D12C
:1017A0004FF0010332466946B8F1000F03A802D09A
:1017B00000F0FEFA01E000F010FBC9E90001C9F8F1
:1017C00008200AB0BDE8F087E4900000007B00F03C
:1017D0008000704700487047F02400207546FFF7EE
:1017E000F9FFAE4605006946534620F007008546DE
:1017F00018B020B5FEF76EFDBDE820404FF00006A2
:101800004FF000074FF000084FF0000B21F00701E8
:10181000AC46ACE8C009ACE8C009ACE8C009ACE82B
:10182000C0098D46704710B50446AFF300802046CE
:10183000BDE81040FEF739BD4FF0013C50F8042BD5
:1018400051F8043B9A4221D1A2EB0C03934313EAD3
:10185000CC1317D150F8042B51F8043B9A4215D100
:10186000A2EB0C03934313EACC130BD150F8042BD7
:1018700051F8043B9A4209D1A2EB0C03934313EABB
:10188000CC13DBD04FF00000704700BFD01A01BA74
:10189000B1FA81F101F0180122FA01F0CB40C1F157
:1018A0002001DBB2C0B2C01A2CFA01F3D11A914365
:1018B00011EAC311E6D170475FEA400C08BF91F00E
:1018C000000F4FEA8C234FEAC12243EA51514FEAFD
:1018D0001C5018BF00F5F0404FEA300018BF41F02F
:1018E00000415FEA6C5C00F02980BCF1FF3F08BF5B
:1018F00040F080407047130C06BF12044FF0100CEC
:101900004FF0000C130E04BF12020CF1080C130F61
:1019100004BF12010CF1040C930F04BF92000CF1F0
:10192000020CD30F04BF52000CF1010C11464FF012
:101930000002A0F11F00A0EB0C00704711F0004F57
:1019400008BF704731F000413FF4D5AF0B0C06BF24
:1019500009044FF0100C4FF0000C0B0E04BF0902ED
:101960000CF1080C0B0F04BF09010CF1040C8B0FD8
:1019700004BF89000CF1020CCB0F04BF49000CF12D
:10198000010CCCF12003A0EB0C0022FA03F302FAC5
:101990000CF241EA030100F10100704720F07F4C96
:1019A00080EA030023F07F47ACEB070303F57C5389
:1019B00000F0004003F1FF032DE980494FEA154B89
:1019C00009B44FEA144325EA0B4E24EA03480FF208
:1019D000042606EB132749083E785FEA320203FB30
:1019E0000667C7F5000707FB06F64FEA54374FEACC
:1019F000D64606F1020607FB066CCCF1005C4FEA06
:101A00001C472CEA074C07FB06F40CFB06F504EB1D
:101A100015464FEA961634BF00204FF000404FEABB
:101A2000D13706FB07FC4FEA1C4C0CFB0BF7D21B13
:101A300003FB0CF761EB07010CFB0EF7B0EB074063
:101A400072EB17420CFB08F734BFA2EB0742B2EB74
:101A5000074261EB17414FEA0C444FEA910706FB3E
:101A600007FC4FEA1C4C0CFB0BF7B0EBC74072EBCA
:101A7000573203FB0CF734BFA2EBC742B2EBC742AD
:101A800061EB57310CFB0EF7B0EBC70072EB5772EE
:101A90000CFB08F734BFA2EBC702B2EBC70261EB45
:101AA0005771039F4FEA816141EA921104EBCC0424
:101AB0004FEAD1374FEA826206FB07FC42EA9012F6
:101AC0004FEA80604FEA1C4C0CFB0BF7D21B03FB68
:101AD0000CF761EB07010CFB0EF7B0EB074072EB64
:101AE00017420CFB08F734BFA2EB0742B2EB0742E8
:101AF00061EB17414FEA8C554FEA910704EB9C24A8
:101B000006FB07FC4FEA1C4C0CFB0BF7B0EBC74085
:101B100072EB573203FB0CF734BFA2EBC742B2EBB8
:101B2000C74261EB57310CFB0EF7B0EBC70072EB0D
:101B300057720CFB08F734BFA2EBC702B2EBC70227
:101B400061EB577115EB4C254FEA816141EA921127
:101B50004FEA82624FEAD13742EA901206FB07FC55
:101B600044F100044FEA80604FEA1C4C0CFB0BF779
:101B7000D21B03FB0CF761EB07010CFB0EF7B0EB7C
:101B8000074072EB17420CFB08F734BFA2EB074289
:101B9000B2EB074261EB174115EB1C154FEA81319F
:101BA00041EA92414FEA823242EA90424FEA803063
:101BB0004FEA0C7644F1000448EA03434EEA0B482E
:101BC0004FF0000EB2EB080C71EB030724BF624626
:101BD00039464EEB0E0E4FF0000B001852414941B2
:101BE0004BEB0B0BB2EB080C71EB03077BF1000B1B
:101BF00024BF624639464EEB0E0E4FF0000B001824
:101C0000524149414BEB0B0BB2EB080C71EB030754
:101C10007BF1000B24BF624639464EEB0E0E51EAB3
:101C2000020718BF46F0010616EB0E7655F10002CA
:101C300054F1000103D5BDE88901BDE80088BDE885
:101C40008901BDE80048B619524141EB0101A3F1F9
:101C50000103704780807F7E7D7C7B7A7978777600
:101C600076757473727171706F6E6E6D6C6C6B6A79
:101C70006A69686867666665646463636261616017
:101C8000605F5F5E5E5D5D5C5C5B5B5A5A59595894
:101C900058575756565555555454535352525251FE
:101CA000515050504F4F4F4E4E4D4D4D4C4C4C4B54
:101CB0004B4B4A4A4A49494948484847474747469B
:101CC00046464545454444444443434343424242D7
:101CD00042414141002B9C4630D477002BD01CB5AB
:101CE0004FEA370703B44FF010004FF01001BAF17C
:101CF000000F06D0BCF1000FDCBF40F0080040F040
:101D000008014FF000000FBCBDE810400BF1010BC3
:101D1000BBF1010F08BF5FEA170722BF12F10102F2
:101D200011F101014FF0004143F1000300F00040C8
:101D300043EA00007047F9D35708D0E746EA064661
:101D400013F1400F4FEA16461FDD13F1200FDFBFDE
:101D500016430A46002120335B42BED0C3F1200760
:101D600046EA064602FA07F74FEA164646EA07062B
:101D7000C3F1200722FA03F201FA07F721FA03F16F
:101D80004FF0000342EA0702A7E746EA020646EAE6
:101D900006464FEA164646EA0106BCBF46EA064634
:101DA000360C4FF000034FF000024FF0000194E7B3
:101DB0002DE9804C9A46934670B491E8380007C8E4
:101DC00031EA400C48BF34EA430C03D5FFF7E6FD87
:101DD000FFF780FFF0BCBDE8008C2DE9804C9A46EF
:101DE000934670B491E8380007C810F0804F08BFE0
:101DF00013F0804F03D100F005F8FFF76BFFF0BC44
:101E0000BDE8008C20F07F4780EA030023F07F4C80
:101E100007EB0C03A3F57C5300F00040A3F1FE0395
:101E200092F0000F00F0B38095F0000F00F0778083
:101E30002DE901494FEA11404FEA144621EA0048D2
:101E400000FB06FC24EA064708FB06F607FB08F839
:101E500000FB07F718EB06484CEB164C4FEA124B09
:101E600018EB07484FEA15464CEB174022EA0B4E99
:101E70000BFB06FC25EA06470EFB06F607FB0EFEEB
:101E80000BFB07F71EEB064E4CEB164C4FF0000613
:101E90001EEB074E4CEB174B18EB0B0840F1000004
:101EA00018EB0E0B58EB000840F100008F1A4FF0B2
:101EB00000013CBFC943661B14BFB5EB040C0021F5
:101EC0003CBFC943F61B4FEA17444EEA8E0E27EA81
:101ED00004454FEA1C4704FB07622CEA074C05FB4C
:101EE00007F70CFB05F604FB0CFC16EB074642EB70
:101EF000174216EB0C4642EB1C421BEB060658EB56
:101F00000202414146EA9E0601D5BDE80189B619A3
:101F1000524141EB0101A3F10103BDE801894FEA00
:101F200014454FEA114724EA054621EA074C05FB10
:101F300007F406FB07F70CFB06F105FB0CFC11EBA5
:101F4000074144EB17444FEA124711EB0C4144EBB5
:101F50001C4422EA074C05FB07F206FB07F70CFBC3
:101F600006F605FB0CFC16EB074642EB174216EB98
:101F70000C4642EB1C456A1854F1000148BF7047FB
:101F8000B619524141EB0101A3F10103704795F0ED
:101F9000000F37D04FEA11424FEA144721EA0246B8
:101FA00024EA074C02FB07F106FB07F70CFB06F4DB
:101FB00002FB0CFC14EB074441EB17414FEA1547B9
:101FC00014EB0C4441EB1C4125EA074C02FB07F5DE
:101FD00006FB07F70CFB06F602FB0CFC16EB0746AC
:101FE00045EB174516EB0C4645EB1C42121951F117
:101FF000000148BF7047B619524141EB0101A3F1FE
:10200000010370474FEA14454FEA114724EA054699
:1020100021EA074C05FB07F106FB07F70CFB06F26C
:102020004FF0000605FB0CFC12EB074241EB174199
:1020300012EB0C4251EB1C4148BF7047921841EB28
:102040000101A3F10103704721B1826842F001024E
:10205000826003E0826822F0010282607047000023
:1020600010B504461248844208D10121401501F000
:10207000C9FF0021601501F0C5FF17E00D4884423B
:1020800008D10121001501F0BDFF0021201501F04C
:10209000B9FF0BE00848844208D10121C80301F0D0
:1020A000B1FF00214FF4004001F0ACFF10BD000073
:1020B0000024014000280140003C0140014600206E
:1020C0008A6802F004020AB1012000E00020704793
:1020D0000146C86C80B270470246002013680B406E
:1020E0000BB1012000E000207047014600208A6803
:1020F00002F008020AB1012000E000207047000051
:1021000030B502460020002350680F4C20400D7966
:102110000C6844EA05242043506090680B4C204032
:10212000D1E902542C434D7944EA450420439060A0
:10213000D06A20F470000C7C641EE4B2234340EAB1
:102140000350D06230BD0000FFFEF0FFFDF7F1FF4D
:10215000F0B504460D4600200021092D11DDE06890
:10216000A5F10A0606EB4607072606FA07F188439B
:10217000A5F10A0606EB460603FA06F10843E060FD
:102180000CE0206905EB4507072606FA07F18843AE
:1021900005EB450603FA06F108432061072A0FDA2A
:1021A000606B561E06EB86071F2606FA07F188436A
:1021B000561E06EB860605FA06F10843606322E028
:1021C0000D2A0FDA206BD61F06EB86071F2606FAAC
:1021D00007F18843D61F06EB860605FA06F1084389
:1021E000206310E0E06AA2F10D0606EB86071F26C9
:1021F00006FA07F18843A2F10D0606EB860605FAFA
:1022000006F10843E062F0BD816841F00801816099
:10221000704721B1826842F4A002826003E08268C4
:1022200022F4A00282607047816841F0040181605D
:102230007047000008B50121082001F0D3FE80207E
:10224000ADF8000010208DF8030003208DF8020087
:102250006946044800F0F4FA8021024800F084FB4B
:1022600008BD0000000C01404CE0022000F092F894
:1022700025A002F08DFF25A002F07CFF24A002F033
:1022800087FF22A002F076FF22A002F081FF6420E7
:1022900001F0F6FA20480078012833D11E48407832
:1022A00004282FD11C48807802282BD11A490A799A
:1022B000C97802EB012007F0A5F818490860184911
:1022C0001648006807F0FCF9804606F0CFFE064687
:1022D000144A154B06F044FA044606F053F90F4928
:1022E00008600846006807F051F8804606F090FB49
:1022F000064600220D4B06F033FA044606F042F97A
:1023000006490860B1E70000010400000000000079
:102310000100000001600A00E018002068000020B1
:1023200000008744B81E85EB51B8CE3F0000244022
:1023300023E012480078012819D1002010490860D4
:1023400010E000200F490860012001F099FA0120F7
:102350000D49C1F89C0101F093FA09480068401C3E
:1023600007490860064800683228EADB02E00020DE
:1023700006490860642001F083FADAE73F00002094
:102380005C0000209C81214200802142B00121425A
:1023900000BFFEE7014601290DD1002004E0002224
:1023A000154B1A54421CD0B2144A12789042F6DBF4
:1023B0000022124B1A7002290DD1002004E00022E5
:1023C0000F4B1A54421CD0B20E4A12789042F6DBE0
:1023D00000220C4B1A7003290DD1002004E00022CA
:1023E000094B1A54421CD0B2084A12789042F6DBCC
:1023F0000022064B1A70704718180020CE000020EB
:10240000E0180020CF000020A8190020D0000020F4
:10241000704700002AE016A11948FEF783FA19490F
:10242000086008460068D8B117A11548FEF77AFA87
:1024300030B11848006818B90120174908700FE03A
:1024400016A10F48FEF76EFA50B10020114908603E
:102450000A2002F0AFF80020134908600E49087006
:102460000320FFF797FF0A2001F00AFAD3E70000E4
:102470002B514D54524543563A20302C3000000029
:10248000A8190020400000207B226964223A2231F2
:10249000227D0000500000203F0000207B22696464
:1024A000223A2230227D0000B001214210B570A0F6
:1024B000FDF7AEFF4FF4FA7003F0C2FA6EA16F4859
:1024C000FEF730FA6E4908600FE00320FFF762FF65
:1024D00067A0FDF79DFF4FF4FA7003F0B1FA66A113
:1024E0006648FEF71FFA66490860654800680028DC
:1024F000EBD064A0FDF78CFF4FF4FA7003F0A0FA64
:1025000063A0FDF785FF4FF4FA7003F099FA64A019
:10251000FDF77EFF4FF4FA7003F092FA0320FFF705
:1025200039FF61A0FDF774FF4FF4FA7003F088FAE9
:1025300060A0FDF76DFF4FF4FA7003F081FA5FA021
:10254000FDF766FF4FF4FA7003F07AFA5EA14B488C
:10255000FEF7E8F94A4908600FE00320FFF71AFF89
:1025600056A0FDF755FF4FF4FA7003F069FA56A133
:102570004248FEF7D7F94249086041480068002800
:10258000EBD00320FFF706FF53A0FDF741FF4FF408
:10259000FA7003F055FA53A13848FEF7C3F93849E9
:1025A000086053A13548FEF7BDF95449086015E0AD
:1025B0000320FFF7EFFE48A0FDF72AFF4FF4FA7063
:1025C00003F03EFA47A12D48FEF7ACF92C4908600C
:1025D00047A12A48FEF7A6F948490860284800683C
:1025E00018B9464800680028E2D00320FFF7D2FE61
:1025F00043A0FDF70DFF4FF4FA7003F021FA43A159
:102600001E48FEF78FF91E49086043A11B48FEF7DC
:1026100089F93A49086015E00320FFF7BBFE38A0AE
:10262000FDF7F6FE4FF4FA7003F00AFA37A11348EB
:10263000FEF778F91249086037A11048FEF772F9E1
:102640002E4908600E48006818B92C480068002818
:10265000E2D00320FFF79EFE32A0FDF7D9FE4FF433
:10266000FA7003F0EDF90320FFF794FE10BD0000AF
:1026700041540D0A000000004F4B0000A819002033
:102680007C00002041542B514750533D310D0A002E
:1026900041542B514D54444953433D300D0A0000E1
:1026A000415445300D0A000041542B4353510D0A4B
:1026B000000000004154490D0A00000041542B4322
:1026C00050494E3F0D0A00002B4350494E3A2052CC
:1026D000454144590000000041542B435245473FB7
:1026E0000D0A00002B435245473A20302C310000A0
:1026F0002B435245473A20302C3500008000002003
:1027000041542B43475245473F0D0A002B43475244
:1027100045473A20302C31002B43475245473A2059
:10272000302C350041542B434F50533F0D0A0000CD
:102730008AB051E040F6C41001F0A2F80320FFF780
:1027400029FE2649264801F0D7FC2648006826497C
:102750000968264A1278264B1B78CDE90632CDE966
:102760000810244802682448006824490968244B5A
:102770001B68CDE90231CDE9040219481749214B04
:10278000214ACDE900102149214800F077FD214977
:1027900008700846027820A12048FDF745FE1F4931
:1027A0001FA0FDF735FE642001F06AF81848FDF718
:1027B00023FE0A211348FEF7B3F91E211248FEF743
:1027C0008DF90A211148FEF7ABF90320FFF7E2FD6E
:1027D00040F6C41001F054F8ACE7000028000020D7
:1027E0001400002064000020500000203D00002064
:1027F0004C000020680000207400002070000020C1
:102800006C0000200C020020160200203402002080
:10281000440100203C00002025640000300100201D
:1028200041542B514D5450554245583D302C302C7D
:10283000302C302C22616564222C25730D0A000097
:102840002DE9F04102460025002600200023002447
:10285000002791F803C00CF00F0591F803C00CF0AD
:10286000100CBCF1000F03D091F802C04CEA050532
:1028700091F800C0BCF1000F31D0146800202BE0AB
:102880004FF0010C0CFA00F3B1F800C00CEA03069B
:102890009E4220D183004FF00F0C0CFA03F7BC438B
:1028A00005FA03FC4CEA040491F803C0BCF1280FBC
:1028B00006D14FF0010C0CFA00FCC2F814C00AE07B
:1028C00091F803C0BCF1480F05D14FF0010C0CFA90
:1028D00000FCC2F810C0401C0828D1D31460B1F825
:1028E00000C0BCF1FF0F34DD546800202EE000F181
:1028F000080C4FF0010808FA0CF3B1F800C00CEA1C
:1029000003069E4221D183004FF00F0C0CFA03F70F
:10291000BC4305FA03FC4CEA040491F803C0BCF183
:10292000280F05D100F1080C08FA0CF8C2F8148041
:1029300091F803C0BCF1480F07D100F1080C4FF02B
:10294000010808FA0CF8C2F81080401C0828CED301
:102950005460BDE8F0810246002093680B400BB143
:10296000012000E0002070474161704710B5044627
:102970000723012221460948FFF7EAFB0121074806
:10298000FFF747FC00BF02210448FFF7A5FB002822
:10299000F9D00248FFF79CFB10BD00000024014065
:1029A0002DE9F04107460C460025002608E0384690
:1029B000FFF7DCFF0544052003F042F8701CC6B2A7
:1029C000A642F4DBB5FBF4F080B2BDE8F08100BFB5
:1029D000FEE7000008B50121042001F003FB4FF4DD
:1029E0008070ADF8000048208DF803006946024869
:1029F000FFF726FF08BD00000008014010B504469F
:102A000014B10120104908700F48007880B14FF4CC
:102A100080710E48FFF79FFF50B900200A490870E7
:102A20004FF480710948FFF796FF50B9012010BD9F
:102A30004FF480710548FFF78EFF012801D102494C
:102A400008700020F3E70000880000200008014023
:102A500008B50121042001F0C5FA4FF4C050ADF8CB
:102A6000000010208DF8030003208DF80200694655
:102A70000448FFF7E5FE4FF4C0510248FFF774FF2A
:102A800008BD00000008014034E014210520FFF7D4
:102A900087FF194908600846006840F6D271081A95
:102AA0000A21B0FBF1F015490860084600680028CB
:102AB00001DC002008601148006805F0A9FF044609
:102AC00000220F4B05F0BCFF03D201200D49086026
:102AD00002E000200B4908600B480078012806D16D
:102AE0000848001D0068C0430849C1F8B0010A2029
:102AF00000F0C6FEC9E7000060000020640000206E
:102B000000005940AC0121423F000020000021425A
:102B100010B500200E4908600E48006820F0704093
:102B20000C4908600846006840F0405008600020EA
:102B30000949C1F89C0100F011F80120044908601E
:102B400000F00CF800200449C1F8880110BD000015
:102B500088012242001001400000224210B50220EC
:102B600002F0A4FF10BD00000B48806940F0100087
:102B7000094988610948006809490840074908600F
:102B80000846006807490843044908600846C068C9
:102B900040F44060C86070470010024000100140DF
:102BA000FFF0FF0F0003003010B500200E49086051
:102BB0000E48006820F070400C4908600846006824
:102BC00040F04050086001200949C1F89C01FFF71E
:102BD000C5FF012004490860FFF7C0FF0020044939
:102BE000C1F8880110BD0000880122420010014098
:102BF0000000224270B5054600241648006820F007
:102C00007040144908600846006840F000400860C1
:102C1000002614E0002010490860FFF79FFF012004
:102C20000E49C1F888016006040E0B486C38006834
:102C300008B1601CC4B2FFF791FF701CC6B2082E29
:102C4000E8DB15B9FFF7B0FF01E0FFF761FF2046B1
:102C500070BD0000001001408801224200002242A5
:102C600070B504461248006820F0704010490860B2
:102C70000846006840F04050086000200D49086098
:102C8000002512E0E0090B49143108606006040ECB
:102C900001200949C1F88801FFF760FF00200549BC
:102CA0000860FFF75BFF681CC5B2082DEADB70BD4A
:102CB00000100140880122420000224210B50E4857
:102CC000006820F070400C4908600846006840F039
:102CD000405008600120094908600949C1F888018D
:102CE000FFF73CFF002005490860FFF737FF002091
:102CF0000349C1F8880110BD001001409C01224227
:102D00000000224210B50E48006820F070400C49C7
:102D100008600846006840F04050086000200949FB
:102D200008600949C1F89C01FFF718FF0120054917
:102D300008600549C1F89C01FFF710FF10BD0000B5
:102D400000100140880122420000224210B50024F8
:102D50001448006820F07040124908600846006876
:102D600040F00040086001200F490860FFF7F6FEC0
:102D700001200E49C1F88801FFF7F0FE07E0601C52
:102D8000C4B2FA2C03DDFFF7BDFF012010BD0648D9
:102D9000803800680028F2D103491439086000BF68
:102DA000F4E70000001001409C0122420000224292
:102DB00010B500201E490860FFF7D6FE80216B2069
:102DC00000F0D9F8642002F03BFE00216B2000F0F7
:102DD000D2F8032000F08DF8002000F082F83220B5
:102DE00000F0ACF80021382000F0C5F800216A207E
:102DF00000F0C1F80021232000F0BDF88021372029
:102E000000F0B9F8752000F015F80446682C0BD1D5
:102E100001216B2000F0AFF800216C2000F0ABF82E
:102E2000322000F08BF801E0012010BD0020FCE70B
:102E3000BC01214270B50446FFF740FFD020FFF7E8
:102E40000FFFFFF783FF2046FFF70AFFFFF77EFF24
:102E5000FFF734FFD120FFF703FFFFF777FF0020D4
:102E6000FFF7C8FE0546FFF74DFF284670BD2DE968
:102E7000F04106460F4614461D46FFF71FFF00218E
:102E800041EA4601C8B2FFF7EBFEFFF75FFF20B152
:102E9000FFF738FF0120BDE8F0813846FFF7E0FE7C
:102EA000FFF754FFFFF70AFF012101EB4601C8B20B
:102EB000FFF7D6FEFFF74AFF0DE0012C04D10020FA
:102EC000FFF798FE287003E00120FFF793FE2870BB
:102ED000601EC4B26D1C002CEFD1FFF713FF002061
:102EE000D9E710B50446E006010E1C2000F043F8B7
:102EF00010BD10B50446E006010E1B2000F03BF8A3
:102F000010BD70B504460025BC2C01DB012510E086
:102F1000622C01DB02250CE02A2C01DB032508E0F2
:102F2000142C01DB042504E00A2C01DB052500E05C
:102F3000062529461A2000F01EF870BD70B504461B
:102F4000B4F57A7F01DD4FF47A74042C00DA04249E
:102F50004FF47A7090FBF4F0401EC5B22946192058
:102F600000F009F80546264604EBD671C1F34F0080
:102F7000FFF7C7FF70BD70B505460C46FFF79EFE14
:102F8000D020FFF76DFEFFF7E1FE18B1FFF7BAFEA4
:102F9000012070BD2846FFF763FEFFF7D7FE2046ED
:102FA000FFF75EFEFFF7D2FE18B1FFF7ABFE012080
:102FB000EFE7FFF7A7FE0020EBE72DE9F04105461C
:102FC0000E4617469846FFF779FE002141EA450173
:102FD000C8B2FFF745FEFFF7B9FE20B1FFF792FE3A
:102FE0000120BDE8F0813046FFF73AFEFFF7AEFE64
:102FF00000240CE018F80400FFF732FEFFF7A6FEED
:1030000018B1FFF77FFE0120EBE7601CC4B2BC42A1
:10301000F0DBFFF777FE0020E3E7000010B529A002
:10302000FDF7F6F94FF4FA7002F00AFD2FA13348CC
:10303000FDF778FC3249086005E02CA12F48FDF728
:1030400071FC2F4908602E4800680028F5D0032045
:10305000FFF7A0F92BA0FDF7DBF94FF4FA7002F0AF
:10306000EFFC34A12548FDF75DFC2549086005E02B
:1030700030A12248FDF756FC21490860204800682D
:103080000028F5D00320FFF785F92EA0FDF7C0F941
:103090004FF4FA7002F0D4FC30A11848FDF742FC5E
:1030A0001749086005E02DA11448FDF73BFC1449C1
:1030B0000860134800680028F5D00320FFF76AF97C
:1030C00010BD000041542B514D544F50454E3D30E2
:1030D0002C223132342E3232332E3230312E3737E9
:1030E000222C313838330D0A000000002B514D548A
:1030F0004F50454E3A20302C30000000A8190020D7
:103100007C00002041542B514D54434F4E4E3D30D6
:103110002C226165645F74657374222C22726F6F58
:1031200074222C224A697436363636363621220D00
:103130000A0000002B514D54434F4E4E3A20302C84
:10314000302C300041542B514D545355423D302CBE
:10315000312C22616564222C300D0A002B514D5414
:103160005355423A20302C312C302C3000000000D6
:1031700000B587B001214FF4017000F033FF4FF428
:10318000004000F003FF2020ADF8040000208DF87F
:10319000070001A91748FFF753FB1748FEF760FF28
:1031A000002002908DF80C008DF80D004FF4602087
:1031B00004900020059001208DF8180002A90E4807
:1031C000FEF79EFF01210C48FEF73EFF0A48FFF77D
:1031D0001BF800BF0848FEF788FF0028FAD1064810
:1031E000FFF722F800BF0448FEF768FF0028FAD175
:1031F00007B000BD000801400024014000BFFEE709
:103200002EE000BF174A1849184803F025FE002891
:10321000F8D1144A1449154803F01EFE1449134806
:10322000006806F01BFA11D312491048006806F036
:1032300015F90BD30E490C48006806F00FFA05D3B8
:103240000C490948006806F009F903D201200A492F
:10325000087002E00020084908700A2000F010FB06
:10326000CFE7000074000020700000206C000020F8
:1032700000002041000020C13D0000202DE9FF4F4B
:10328000F9B00C4691469A468C22254955A8FDF77F
:10329000EBFB8B9805F0EAFE05460E468A9805F092
:1032A000E5FE07468846899805F0E0FECDE9120163
:1032B000889805F0DBFECDE910018D9B8C9A8E99E4
:1032C0008F98CDE90878CDE90A56CDE90C23CDE9F0
:1032D0000E10DDE91201CDE90601DDE91001CDE9AD
:1032E0000401869987984B462246CDE900A10290B9
:1032F00055A915A8FDF798F815A8FDF751FB1490EE
:1033000015A8FDF74DFB1FFA80FB5A4615A97998C1
:10331000FDF765FB0BF0FF007DB0BDE8F08F00000E
:10332000F4A700087047000070B5002100230F22A9
:10333000C47804B3154C246804F4E064C4F5E06474
:10334000210AC1F10403CA40447804FA03F18478E5
:103350001440214309010E4C0678A155047804F06D
:103360001F050124AC4005786D11AD0005F1E02585
:10337000C5F8004109E0047804F01F050124AC40C1
:10338000044D0678761145F8264070BD0CED00E03E
:1033900000E400E080E100E002490143024A1160DC
:1033A000704700000000FA050CED00E010B500F0D9
:1033B00013F800F06FFB00F097FB00F0B7FB00F094
:1033C0003FFB00F011FB00F04BFC00F0EFFB00F0C6
:1033D00015FC00F002F810BD7047704706480078F1
:1033E000012808D105480078FF2804D20348007856
:1033F000401C0249087070470E01002001010020A6
:1034000010B500241A480078012830D1FCF774FF69
:1034100004461848007820B116480078401E154927
:10342000087014480078F8B913480078E0B900F043
:1034300079FC12481249097850F8210011490860B6
:103440000F4800781049097888420DD00D4800686F
:10345000806B401C0B49096888630C480068401C5D
:103460000A490860FCF767FF2046FCF749FF10BDDA
:103470000E0100200101002002010020881F002011
:10348000040100201C01002003010020E8000020AE
:1034900010B500240B480078012811D1FCF72CFF4F
:1034A00004460948007840B908480078FF2804D24B
:1034B00006480078401C054908702046FCF720FFAC
:1034C00010BD00000E0100200101002002010020BB
:1034D00010B5002413480078012821D1FCF70CFF17
:1034E000044611480078C0B10F480078401E0E49CC
:1034F00008700846007860B90C48007828B9204662
:10350000FCF7FEFE00F0D4FB0AE02046FCF7F8FED4
:1035100006E02046FCF7F4FE02E02046FCF7F0FE51
:1035200010BD00000E01002002010020010100205A
:1035300010B50B48007890B900F0F4FB094800780A
:103540000949087009480749097850F821000849D5
:1035500008600846006807490860FCF7D4FE10BD03
:103560000E0100200401002003010020881F00201C
:103570001C01002014010020704700002DE9F04FCD
:1035800085B081468A4693461C46DDE90F78129D38
:1035900000200390FCF7B0FE03902348007830B180
:1035A0000398FCF7ADFE3C2005B0BDE8F08F1F4846
:1035B00050F8240088BB01201C4941F824000398DE
:1035C000FCF79EFE2A464146384600F0D1FC2B46C9
:1035D0005A465146484600F0AFF804901198CDE99C
:1035E000008002953A4620460E9B049900F0B0FBFD
:1035F000064636B90E48007801280CD100F058FB79
:1036000009E0FCF779FE03900020084941F8240006
:103610000398FCF775FE3046C6E7FFE70398FCF712
:103620006FFE2820C0E7000001010020881F002055
:103630000E010020704770472DE9F04106460F4605
:1036400014464FF000081548007818B11220207079
:10365000BDE8F081FCF750FE8046FF2E03D11048F4
:10366000006890F832600F4850F826502DB9404657
:10367000FCF746FE43202070EAE7012D05D14046C5
:10368000FCF73EFE43202070E2E7EF644046FCF783
:1036900037FE0020207000BFDAE7000001010020A3
:1036A00014010020881F0020704700002DE9F0471A
:1036B00007460D464FF0000A002028606860FCF7BE
:1036C0001BFE8246FF2F03D11948006890F8327024
:1036D000184850F827402CB95046FCF711FE4320FB
:1036E000BDE8F087012C04D15046FCF709FE4320C9
:1036F000F6E7207C00F0010020B95046FCF700FE00
:103700004520EDE70026D4F80C90D4F80880504608
:10371000FCF7F6FD00E0761C58F8041B0029FAD0EF
:10372000B0002860A9EB0600800068600020D7E7A1
:1037300014010020881F002070B5044610464FF089
:1037400080750560051F28462C606FF00106051F77
:1037500028462E604FF01236051F28462E604FF087
:103760000336051F28462E604FF00236051F2846F7
:103770002E607610051F28462E60051F28462960FA
:103780004FF01136051F28462E604FF01036051FEA
:1037900028462E604FF00936051F28462E604FF050
:1037A0000836051F28462E604FF00736051F2846AD
:1037B0002E604FF00636051F28462E604FF0053666
:1037C000051F28462E604FF00436051F28462E6040
:1037D00070BD00002DE9F04105464FF00008FCF7F0
:1037E0008BFD8046FF2D05D12048006890F83250AF
:1037F000012608E01D48006890F83200A84201D177
:10380000012600E000261A4850F825402CB9404611
:10381000FCF776FD4820BDE8F081012C04D140463C
:10382000FCF76EFD4320F6E794F834701148C05D54
:1038300094F8351088430F49C8550846C05D30B923
:1038400094F836100C48007888430B49087094F8B7
:10385000300040F0080084F830004046FCF750FD8E
:10386000012E01D100F024FA0020D4E71401002039
:10387000881F00200601002005010020704700007D
:1038800070B5054600261748007800B170BD16488F
:10389000007800B1FAE71DB3FCF72EFD0646134889
:1038A000006890F834401248005D1049096891F8AA
:1038B000351088430E4908550846005D40B90B484D
:1038C000006890F836100B48007888430949087062
:1038D00006480068C5623046FCF712FD00F0E8F9C2
:1038E00000BFD3E7010100200201002014010020E5
:1038F000060100200501002070B5002600F072F8D6
:10390000FCF7FAFC064631480068401C2F49086065
:103910003046FCF7F5FC2E480078012853D12D489D
:10392000007820B1012804D0022809D103E0012544
:103930000BE0002509E0012501202649087004E07C
:10394000012500202349087000BF00BF05B970BDE4
:103950002148046833E0FCF7CFFC0646E06A50B328
:10396000E06A401EE062E06A28BB94F8300000F094
:10397000370040B114F8300F00F0C800207001206B
:103980006070303C02E0002084F8310094F8300090
:1039900000F0080078B93434A07810490978084359
:1039A0000E49087020780E49085C6178084314F8C5
:1039B00034190B4A505464693046FCF7A1FC94F862
:1039C00032003F28C7D100BFC1E700002C01002012
:1039D0000E0100202401002020010020050100200C
:1039E00006010020704700002DE9F04150211148E8
:1039F00000F02CF900250DE0681C86B20D4800EBA4
:103A0000051400EB06170020207067600AA0E06034
:103A1000681C85B2042DEFD3064800EB0514002086
:103A20002070606004A0E060024804490860BDE8BE
:103A3000F0810000381B00203F000000F000002053
:103A400070B5C821114800F001F900230FE0581C9F
:103A500085B203EB83000D4901EB800405EB850083
:103A600001EB8006002020706660581C83B2092B91
:103A7000EDD303EB8300054901EB800400202070A7
:103A8000606008460249086070BD0000701A00209E
:103A9000EC00002000200A4908600A4908700A4921
:103AA00008700A4908700A4908700A4908600A49FA
:103AB00008600A4908600A4908600A4908707047A6
:103AC0002C01002001010020020100200F01002034
:103AD0000E010020E800002010010020FC00002062
:103AE000F80000200001002000210A4A1170002087
:103AF00004E00021084A1154411CC8B20828F8D338
:103B00000021064A1170064A1170064A1160064AE1
:103B1000116070470501002006010020030100200C
:103B2000040100201C0100201401002070B54FF496
:103B30007C71194800F08AF84FF48071174800F042
:103B400085F8002413E0601CC5B2C4EBC40000EB90
:103B50004000114901EB8003C5EBC50000EB4000BC
:103B600001EB80065E610EA0D864601CC4B20B2C11
:103B7000E9D3C4EBC40000EB4000074901EB80032C
:103B80000020586106A0D864002006490860024859
:103B90000549086070BD000088200020881F0020B3
:103BA0003F000000200100201801002000B587B070
:103BB0000320002180220A4BCDE90132CDE9031018
:103BC0004FF6FF703F23074A00900748FFF7D6FCE7
:103BD00006AA06A13F20FFF72FFD07B000BD000099
:103BE000881D0020841F0020853E000875432F4F4C
:103BF000532D49492049646C6500000000B587B029
:103C00000320002180220A4BCDE90132CDE90310C7
:103C10004FF6FE703E23074A00900748FFF7AEFCC0
:103C200006AA06A13E20FFF707FD07B000BD000071
:103C3000881B0020841D0020AD3E000875432F4FD7
:103C4000532D4949205374617400000004E00022A0
:103C500000F8012B4A1E91B20029F8D170470000EC
:103C60002DE9F04178211048FFF7F0FF00240DE026
:103C7000601C86B204EB44000B4901EBC00506EB67
:103C8000460001EBC0072F60601C84B2042CEFD308
:103C900004EB4400044901EBC005002028600846FD
:103CA00002490860BDE8F081782400202801002046
:103CB00010B50024FCF720FB044613480078F8B93F
:103CC00012480078E0B900F02DF811481149097840
:103CD00050F82100104908600E4800780F49097813
:103CE00088420DD00C480068806B401C0A49096866
:103CF00088630B480068401C09490860FCF714FB06
:103D00002046FCF7FDFA10BD010100200201002051
:103D1000881F0020040100201C0100200301002056
:103D2000E80000200649074A1278885C0649095CC9
:103D3000034A515C01EBC001044A11707047000056
:103D4000FEA4000805010020060100200401002057
:103D50002DE9F84F05460F4690469946DDE90AAB36
:103D600000200090FCF7C8FA00903F480468002C3F
:103D700074D0183454F8040C3B4908600098FCF7E0
:103D8000BFFA44F8187CA576002020766076606142
:103D900044F814BC44F80CAC44F8108C0C9824F88B
:103DA000080C24F8069C0020E077E810207705F046
:103DB0000700E076217F01208840A077E17E012086
:103DC0008840607700206060E060A0602062A062B0
:103DD0006062E062206325A06063183C002606E074
:103DE000002104F1500040F82610701CC6B2002ECD
:103DF000F6D02046FFF7C0FB2046FFF71BFCFCF780
:103E00007BFA00901A4840F825401A480068606123
:103E10000020A0611748006810B11648006884614E
:103E2000144804603434A0781349097808431249CF
:103E3000087020781149085C6178084314F8341937
:103E40000E4A50540E480078401C0D4908700098E6
:103E5000FCF756FA0020BDE8F88FFFE70098FCF762
:103E60004FFA4220F7E70000180100203F00000051
:103E7000881F0020200100200501002006010020ED
:103E80000F010020002400BF00BFFCF735FA0446F4
:103E900005480068401C044908602046FCF730FAD9
:103EA000FFF7C9FBF1E7000010010020002400BF6C
:103EB00002E02820FFF7E4FC194800780028F8D039
:103EC000184800686421B0FBF1F016490860084604
:103ED000006828B9002014490870FF20FFF77AFC19
:103EE00000BFFCF709FA0446104800681049086052
:103EF00000200E4908602046FCF702FA0C480068D2
:103F000008490968B0FBF1F0C0F164000649087087
:103F1000FFF7CAFB00F00EF81420FFF7B1FCE0E752
:103F200000010020F8000020F40000201001002013
:103F3000FC0000207CB5002514E069462846FFF708
:103F4000B5FB064666B9094850F8254044B1012C36
:103F500006D0D4E9020100EB810060640198A064FE
:103F6000681CC5B23F2DE8D97CBD0000881F002029
:103F700002F0010343B102F002032BB102E0491E3B
:103F8000002308C00029FAD1704700000146002034
:103F9000034A506820F440400843506070470000D6
:103FA0000010024029B1064AD2690243044BDA618B
:103FB00004E0034AD2698243014BDA617047000092
:103FC0000010024029B1064A12690243044B1A61EB
:103FD00004E0034A12698243014B1A6170470000F2
:103FE0000010024029B1064A92690243044B9A61CB
:103FF00004E0034A92698243014B9A6170470000D2
:104000000010024029B1064AD2680243044BDA602C
:1040100004E0034AD2688243014BDA607047000033
:104020000010024030B500210022002400232D4D55
:104030006D6805F00C0121B1042905D0082923D1B0
:1040400005E0294D056022E0274D05601FE0254D64
:104050006D6805F47012234D6D6805F480340225F7
:1040600005EB92421CB9214D554305600BE01D4DF7
:104070006D6805F400351DB11C4D5543056002E027
:10408000194D5543056002E0174D056000BF00BFA4
:10409000144D6D6805F0F0010909154D6B5C05685C
:1040A000DD4045600F4D6D6805F4E061090A104D73
:1040B0006B5C4568DD4085600A4D6D6805F46051B4
:1040C000C90A0B4D6B5C4568DD40C560054D6D68E8
:1040D00005F44041890B074D6B5CC568B5FBF3F5F2
:1040E000056130BD0010024000127A0000093D0059
:1040F000D1000020E10000202DE9F04F9FB00546DF
:104100000E464FF000091422FD4918A8FCF7ACFC3C
:104110000320FEF73FF9FBA0FCF77AF94FF4FA70A1
:10412000FFF7AEFBFDA1FE48FCF7FCFBFD49086074
:104130000846006800287DD0FB4890F80080B8F160
:10414000370F78DD00BFF648407B242872D1F44851
:10415000807B4728FAD1F248C07B5028F6D1F0483E
:10416000007C4728F2D1EE48407C4728EED1EC484D
:10417000807C4128EAD1002436E0B9F1020F0AD14F
:10418000E748005D2C2806D0E548025D5046411CFA
:1041900001F0FF0A2A54B9F1040F0AD1E048005D8A
:1041A0002C2806D0DE48025D5046411C01F0FF0A73
:1041B0003254B9F1010F0BD1D948005D2C2807D03A
:1041C000D748025D5046411C01F0FF0A18A90A5465
:1041D000D348005D2C2805D109F1010000F0FF094A
:1041E0004FF0010A601CC4B24445C6DB0024C1E0A4
:1041F000285D2E287ED1601E285C2855A01E295CD3
:10420000601E29542E21A01E2954611D695CA1F154
:10421000300004F0FDFBC54AC54BCDE9100104F0A8
:104220004BFCCDE91401211D695CA1F1300004F0C3
:10423000EFFB01E0B0E1B0E1BE4ABF4BCDE90C01BC
:1042400004F03AFCCDE91001E11C695CA1F13000F9
:1042500004F0DEFBB94ABA4BCDE9080104F02CFCAE
:10426000CDE90C01A11C695CA1F1300004F0D0FB88
:10427000B44AB54BCDE9040104F01EFCCDE90801B8
:10428000611C695CA1F1300004F0C2FBAF4AB04B85
:10429000CDE9000104F010FCCDE904012A5D611EA6
:1042A000695C30390A2303FB0121A1F1300004F0DD
:1042B000AFFBCDE90201DDE9042304F095F9CDE976
:1042C0000601DDE9082304F08FF9CDE90A01DDE9F3
:1042D0000C2304F089F9CDE90E01DDE9102304F087
:1042E00083F9CDE91201DDE9142304F07DF9CDE96C
:1042F000160100E03CE004F045F91D901D9804F023
:10430000B5FE0022934BCDE9140104F029FACDE962
:10431000160104F037F91D90002726E01D9804F0DF
:10432000A5FE00228C4BCDE9140104F0C5FBCDE9BC
:10433000160104F027F91D901D9805F027F830307C
:10434000C1B2601E38442954611E3944685C05F0CE
:1043500071F8824917901D9804F0B4FE16901799D1
:1043600005F0AEF91D90781CC7B2052FD6DB04E02E
:10437000601CC4B2112CFFF63BAF00BF002404E068
:10438000601C285C2855601CC4B2112CF8DB00248A
:10439000F0E0305D2E287DD1601E305C3055A01ECF
:1043A000315C601E31542E21A01E3154611D715CA0
:1043B000A1F1300004F02CFB5C4A5D4BCDE910010B
:1043C00004F07AFBCDE91401211D715CA1F13000EC
:1043D00004F01EFB574A584BCDE90C0104F06CFB6E
:1043E000CDE91001E11C715CA1F1300004F010FB7B
:1043F000524A534BCDE9080104F05EFBCDE90C01B4
:10440000A11C715CA1F1300004F002FB4D4A4E4B3F
:10441000CDE9040104F050FBCDE90801611C715C99
:10442000A1F1300004F0F4FA484A494BCDE900010B
:1044300004F042FBCDE90401325D611E715C30394C
:104440000A2303FB0121A1F1300004F0E1FACDE9D8
:104450000201DDE9042304F0C7F8CDE90601DDE936
:10446000082304F0C1F8CDE90A01DDE90C2304F0CA
:10447000BBF8CDE90E01DDE9102304F0B5F8CDE974
:104480001201DDE9142304F0AFF8CDE9160104F0C0
:1044900079F800E06CE01D901D9804F0E7FD002223
:1044A0002C4BCDE9140104F05BF9CDE9160104F0C1
:1044B00069F81D90002758E01D9804F0D7FD0022F0
:1044C000254BCDE9140104F0F7FACDE9160104F00B
:1044D00059F81D901D9804F059FF3030C1B2601E8C
:1044E00038443154611E3944705C04F0A3FF1B4909
:1044F00017901D9804F0E6FD1690179930E0000023
:10450000A498000841542B51475053474E4D454104
:104510003D22474741220D0A000000004F4B00009A
:10452000A81900207C000020D0000020F168E3885A
:10453000B5F8E43E2D431CEBE2361A3FFCA9F1D25C
:104540004D62503F7B14AE47E17A843F9A99999926
:104550009999B93F00004E400000244000004042BD
:1045600005F0AEF81D90781CC7B2052FA4DB04E05F
:10457000601CC4B2112CFFF60CAF00BF002404E095
:10458000601C305C3055601CC4B2112CF8DB6878BC
:10459000302804D04FF0010B01E04FF0000B1FB0AA
:1045A000BDE8F08F704710B541F61F41C72000F0FD
:1045B000EBF910BD10B5044621464FF0804000F0E5
:1045C0009AFB10BDEDE00020FEF718FA08B10120BB
:1045D00000E000207349087073480078012815D165
:1045E00008460078012811D1704908601520FFF7AE
:1045F000E1FF6FA17048FBF717FF00206A490870C0
:104600006E480078401C6D49087018E067480068E3
:1046100038B964480078012803D169A000F096FDFC
:104620000DE062480068012809D15E480078012841
:1046300005D100205D4908600A20FFF7BBFF5B48F9
:104640000068002834D160A16148FCF76BF980B3A1
:104650005DA15948FBF7E8FE1E215E48FCF73EFAD3
:1046600059A15B48FCF75EF95B4908605BA15848BB
:10467000FCF758F95B49086008460068564B1B6810
:10468000C01A021D54480068514BC01AC118514845
:10469000FCF736F90120FDF77DFE01204349086053
:1046A0001520FFF787FF45480078401C43490870F4
:1046B00074E0FFE74CA14648FCF734F9002834D0F9
:1046C0004AA13D48FBF7B0FE47A14A48FBF7ACFEC4
:1046D0001E214048FCF702FA43A13D48FCF722F9AD
:1046E0003D4908603DA13A48FCF71CF93D49086086
:1046F00008460068384B1B68C01A021D364800681F
:10470000334BC01AC1183348FCF7FAF80120FDF703
:1047100041FE0120254908601520FFF74BFF27487F
:104720000078401C2549087038E033A12848FCF780
:10473000F9F898B32DA12048FBF776FE2EA12D485D
:10474000FBF772FE1E212348FCF7C8F92AA1204876
:10475000FCF7E8F82049086020A11D48FCF7E2F8C2
:1047600020490860084600681B4B1B68C01A021DE0
:1047700019480068164BC01AC1181648FCF7C0F853
:104780000420FDF707FE0120084908601520FFF707
:1047900011FF0A480078401C084908700A20FFF7FA
:1047A0006FF810E73E0000203F000020500000207E
:1047B00057656978696E0000340200204C000020C3
:1047C0004F4B0D0A00000000556E6B6E6F776E0048
:1047D0001818002016020020440000202E6A70677E
:1047E000000000004800002066616E0041646D69B1
:1047F0006E0000000C020020787A660010B500F010
:1048000001F810BD0CB500200190009033480068FD
:1048100040F480303149086000BF3048006800F43F
:10482000003000900198401C0190009818B9019840
:10483000B0F5A06FF1D12948006800F4003010B144
:104840000120009001E0002000900098012843D151
:104850002348006840F010002149086008460068BD
:1048600020F0030008600846006840F0020008607D
:104870001A48406819494860084640684860084638
:10488000406840F4806048600846406820F47C102E
:1048900048600846406840F4E810486008460068F0
:1048A00040F08070086000BF0C48006800F00070A5
:1048B0000028F9D00948406820F003000749486003
:1048C0000846406840F00200486000BF0348406866
:1048D00000F00C000828F9D10CBD000000100240C7
:1048E00000200240042808D14FF0E021096941F07E
:1048F00004014FF0E022116107E04FF0E021096967
:1049000021F004014FF0E0221161704710B5054815
:104910000078012805D1FEF761FDFEF7EDFFFEF7F7
:104920006FFD10BD0E01002010B51348006840F067
:1049300001001149086008464068104908400E49C6
:104940004860084600680E4908400B490860084660
:10495000006820F4802008600846406820F4FE00CB
:1049600048604FF41F008860FFF748FF4FF0006079
:104970000449086010BD0000001002400000FFF86C
:10498000FFFFF6FE08ED00E030B589B005460C46A5
:1049900001210520FFF726FB01210846FFF702FB56
:1049A00018208DF813000220ADF8100003208DF8B8
:1049B000120004A91948FDF743FF4FF0804000F0B2
:1049C00047F8ADF80850ADF804400020ADF80600F7
:1049D000ADF80A0001A94FF0804000F08FF9602087
:1049E000ADF814000020ADF81C000120ADF8160051
:1049F000C720ADF81A0005A94FF0804000F01CF95F
:104A00000821C80600F06AF90121880700F008F8BB
:104A10000121880700F010F809B030BD00080140FE
:104A200021B1028842F08002028004E002884FF641
:104A30007F731A400280704721B1028842F0010260
:104A4000028004E002884FF6FE731A40028070472D
:104A500010B504466848844208D10121C014FFF70C
:104A6000D1FA0021E014FFF7CDFAC4E0B4F1804F91
:104A700008D101210846FFF7A5FA00210120FFF720
:104A8000A1FAB8E05D48844208D101210220FFF775
:104A900099FA00210220FFF795FAACE058488442C9
:104AA00008D101210420FFF78DFA00210420FFF72F
:104AB00089FAA0E05348844208D101210820FFF779
:104AC00081FA00210820FFF77DFA94E04E488442E5
:104AD00008D101211020FFF775FA00211020FFF7FF
:104AE00071FA88E04948844208D101212020FFF76B
:104AF00069FA00212020FFF765FA7CE044488442EF
:104B000008D101214014FFF77DFA00216014FFF75E
:104B100079FA70E03F48844209D10121C804FFF7C7
:104B200071FA00214FF40020FFF76CFA63E03A4875
:104B3000844209D101210805FFF764FA00214FF4EE
:104B40008010FFF75FFA56E03448844209D1012112
:104B50004805FFF757FA00214FF40010FFF752FA0B
:104B600049E02F48844208D101214020FFF72AFA6A
:104B700000214020FFF726FA3DE02A48844208D170
:104B800001218020FFF71EFA00218020FFF71AFA8A
:104B900031E02548844208D101218015FFF712FA3F
:104BA0000021A015FFF70EFA25E02048844209D124
:104BB00001210804FFF726FA00214FF48030FFF7A7
:104BC00021FA18E01A48844209D101214804FFF76C
:104BD00019FA00214FF40030FFF714FA0BE01548E2
:104BE000844208D101218804FFF70CFA00214FF418
:104BF0008020FFF707FA10BD002C014000040040A0
:104C000000080040000C004000100040001400406C
:104C100000340140004C014000500140005401406C
:104C200000180040001C00400020004000400140EF
:104C3000004401400048014070B5002400220023D8
:104C4000058C4FF6EF7635400584028C8388048B03
:104C500048F6FF752C404FF6FF452C400D884FF667
:104C6000FF7606EA05252C434FF6DF752A400D89AD
:104C700006EA05152A434D8806EA05152A43154D0F
:104C8000A84202D0144DA8421DD14FF67F752A408C
:104C90004D894FF6FF7606EA05152A434FF6BF7594
:104CA0002A408D8806EA05152A434FF6FF352B402A
:104CB0004FF2FF752B408D8906EA85052B43CD8980
:104CC00006EA85052B4383800483CD88058702840B
:104CD00070BD0000002C0140003401400A46002154
:104CE000018B4FF2FF7319404FF6FF7303EA022363
:104CF0001943018370470187704700000022028832
:104D00001D4B98420ED01D4B98420BD0B0F1804FF6
:104D100008D01B4B984205D01A4B984202D01A4B30
:104D2000984204D14FF68F731A404B881A43174BA1
:104D3000984207D0164B984204D04FF6FF431A40D2
:104D4000CB881A4302808B8883850B8803850A4BA6
:104D500098420BD0094B984208D00E4B984205D090
:104D60000D4B984202D00D4B984201D10B7A03862D
:104D70000123838270470000002C01400034014071
:104D80000004004000080040000C004000100040FB
:104D90000014004000400140004401400048014030
:104DA00010B5FEF71BFB40F22551194800F00CF935
:104DB00058B3174800F0C4F9C4B216480078002070
:104DC00018BB14480078002048B10A2C02D01149C1
:104DD00008701AE00F4800780E49087015E00D2C95
:104DE00004D10C4800780B4908700EE0094800789F
:104DF00009490C5407480078401C064908700846C9
:104E00000078C72801DD00200870FEF7F9FA10BD10
:104E100000380140CE0000201818002010B5FEF721
:104E2000DDFA40F22551194800F0CEF858B3174882
:104E300000F086F9C4B216480078002018BB144868
:104E40000078002048B10A2C02D0114908701AE0FD
:104E50000F4800780E49087015E00D2C04D10C485D
:104E600000780B4908700EE00948007809490C5495
:104E700007480078401C0649087008460078C72893
:104E800001DD00200870FEF7BBFA10BD00440040B1
:104E9000CF000020E018002010B5FEF79FFA40F286
:104EA0002551194800F090F858B3174800F048F918
:104EB000C4B216480078002018BB144800780020BF
:104EC00048B10A2C02D0114908701AE00F48007846
:104ED0000E49087015E00D2C04D10C4800780B49E0
:104EE00008700EE00948007809490C54074800781A
:104EF000401C0649087008460078C72801DD0020DC
:104F00000870FEF77DFA10BD00480040D000002078
:104F1000A819002021B1828942F40052828104E064
:104F200082894DF6FF731A408281704710B504469E
:104F30002048844209D101218803FFF763F800214A
:104F40004FF48040FFF75EF832E01B48844209D1FD
:104F500001214804FFF736F800214FF40030FFF735
:104F600031F825E01548844209D101218804FFF772
:104F700029F800214FF48020FFF724F818E01048AA
:104F8000844209D10121C804FFF71CF800214FF425
:104F90000020FFF717F80BE00A48844208D10121EE
:104FA0000805FFF70FF800214FF48010FFF70AF80B
:104FB00010BD00000038014000440040004800409F
:104FC000004C00400050004070B502460024002311
:104FD0000025002040F66A16B14200D100BFC1F39F
:104FE000421501F01F03012606FA03F3012D02D139
:104FF0009689334006E0022D02D1168A334001E043
:10500000968A33400C12012606FA04F416883440BE
:1050100013B10CB1012000E0002070BDF0B50346D3
:10502000002400260025002040F66A17B94200D16E
:1050300000BF1846C1F3421401F01F06012707FA0A
:1050400006F5012C01D10C3004E0022C01D1103006
:1050500000E014301AB107682F43076002E00768C8
:10506000AF430760F0BD00002DE9F04786B005466C
:105070000E460024A24600BFA1460027B08900B119
:1050800000BF2F462C8A4CF6FF700440F088044382
:105090002C82AC894EF6F3100440B0883189084365
:1050A000718908430443AC81AC8A4FF6FF40044049
:1050B000B0890443AC8201A8FEF7B4FF1F488742C1
:1050C00002D1DDF810A001E0DDF80CA0A88900F401
:1050D000004040B10AEBCA0000EB0A1031684900F9
:1050E000B0FBF1F807E00AEBCA0000EB0A103168E8
:1050F0008900B0FBF1F86420B8FBF0F0040120094E
:10510000642101FB1089A88900F4004040B13220DD
:1051100000EBC900B0FBF1F000F00700044308E029
:10512000322000EB09106421B0FBF1F000F00F0019
:1051300004432C8106B0BDE8F08700000038014030
:1051400001468888C0F30800704700000BE000BFEC
:105150000749098801F040010029F9D00178044A83
:10516000121D1180401C01780029F0D17047000009
:105170000038014000BF0549098801F040010029BD
:10518000F9D00178014A121D118070470044004097
:105190000BE000BF0749098801F040010029F9D060
:1051A0000178044A121D1180401C01780029F0D1B9
:1051B000704700000044004000BFFEE7490050EA8D
:1051C000C12018BF04204A0D18BF40F0010040F272
:1051D000FF72B2EB515F08BF40F00200012808BF28
:1051E000052070472DE9F0414F1E00EBC701044632
:1051F000D1E9000115461E4637F006020DD02A46B9
:10520000334603F059FC7F1E04EBC703D3E90023A8
:1052100003F0EAF937F00602F1D1022F25D0042F6E
:1052200013D0062F18BFBDE8F0812A46334603F09D
:1052300043FCD4E90A2303F0D7F92A46334603F0A6
:105240003BFCD4E9082303F0CFF92A46334603F0A8
:1052500033FCD4E9062303F0C7F92A46334603F0AA
:105260002BFCD4E9042303F0BFF92A46334603F0AC
:1052700023FCD4E9022303F0B7F92A46334603F0AE
:105280001BFCD4E90023BDE8F04103F0ADB90122D5
:1052900004F0C1BA03F0A8B9002213461046114623
:1052A00003F05EBA024A0020110704F0B4BA00000D
:1052B00001FDFFFF30380A2801D20120704700208D
:1052C000704700BF704700002DE9FE4F06460F46AD
:1052D0000025684601F000FA002442E056F8240058
:1052E00057F82410A0EB010ABAF1000F01DB514678
:1052F00001E0CAF10001084604F084F883464FF04B
:105300008F4103F04DFF80465DF82400002104F03A
:1053100009F816D05DF82410404603F041FF82469C
:105320004FF07E5104F0CCF9814629F0004A0F4835
:10533000416A504604F092F912D20120A040054380
:105340000EE00A48C169404604F088F805D30748D2
:10535000016A404604F082F902D20120A0400543D0
:10536000641C032CBADB2846BDE8FE8FE0980008D9
:105370002DE9F04D8D4F21F0004A86B005460C46D0
:10538000BA452ADBAAEB070028430AD088488245A1
:1053900001DC1AD1CDB106B02846BDE8F04DFFF7CB
:1053A00076BF844A844B284603F086FB07460E46A8
:1053B000824A834B2846214603F07EFB06B03A46DC
:1053C0003346BDE8F04D03F00FB90120FBF74FFC69
:1053D00006B0BDE8F04DFFF75FBF7A48824542DA7C
:1053E000BAF1795F0BDA2846FFF7E8FE042808BF18
:1053F000FFF758FF284606B02146BDE8F08D2A4643
:105400000B46104603F058FB834602466E480E4694
:105410000B4606217844FFF7E5FE5A46334603F073
:105420004BFB804669488A465A46334604217844F5
:10543000FFF7D8FE5A46334603F03EFB00223B46B8
:1054400003F0D2F802460B464046514603F088F975
:105450002A46234603F030FB06B02A462346BDE821
:10546000F04D03F0C1B8284624F0004100223D462B
:105470003B4603F01FFC4FF0FF3204F0CCF9064628
:10548000024653480F460B4606217844FFF7AAFE12
:1054900032463B4603F010FBCDE900014D48324651
:1054A0003B4604217844FFF79DFE32463B4603F01D
:1054B00003FB00222B4603F097F883460291304607
:1054C000394602F04FFE804643480D46504517DCF2
:1054D000DDE900015A46029B03F042F942462B46A1
:1054E00003F0EAFA42462B4603F07EF8012204F06C
:1054F00092F9304A304B03F0CFFC304A304B4CE04D
:105500004FF0000A52460B46404603F06DF8CDE9D5
:10551000031052462B461046194603F0CDFA324688
:105520003B4603F0C7FBDDE9033203F019F90646F9
:105530000F46DDE900015A46029B03F011F983464C
:10554000009101223046394604F065F9194A1A4B98
:1055500003F0B0FB06460F4601224046294604F000
:105560005AF95A46009B03F0A7FA32463B4603F02D
:1055700093FC06460F4601225046294604F04BF99B
:105580000E4DDFF858802A46434603F093FB32461F
:105590003B4603F08FFB2A46434603F08BFB002C6F
:1055A000D8BF81F0004106B0BDE8F08D0000F03FAB
:1055B0000000F07F075C143326A6913C182D44545C
:1055C000FB21F93F0000E03F30520000465200004E
:1055D000BA510000D05100003333EF3FFB21E93FC7
:1055E0002DE9F84F04460D4621F000400091734923
:1055F000814211DC7249884201DC06D12CB120467F
:105600002946BDE8F84FFFF742BE6E48002DCCBFDB
:105610006D496E49BDE8F88F6D49814211DD6D49D4
:105620008142D8BF4FF0FF366DDD20462946FFF797
:10563000C5FD042808BFFFF735FE20462946BDE812
:10564000F88F6549654F25F00045814233DD644997
:10565000814219DD002632464FF08043204629461C
:1056600002F0C2FF80468A4601222046294604F005
:10567000D2F800223B4603F00FFC4246534603F0AB
:105680006FF804460D463EE001260022BA463B462E
:105690002046294602F0A8FF80460F4600225346C6
:1056A0002046294603F0F8FB42463B4603F058F8F3
:1056B00004460D4627E04B4981421BDDDFF828A157
:1056C0000226002253462046294603F0F5F900221F
:1056D0003B4602F089FF80460F4600225346204693
:1056E000294603F0D9FB42463B4603F039F804460D
:1056F0000D4608E0032622462B4600203B4903F0D6
:105700002FF804460D4622462B461046194603F054
:10571000D3F98B46824602460B4603F0CDF9074685
:105720000246334888460B4606217844FFF75AFD67
:1057300052465B4603F0C0F982462E488B463A46F5
:10574000434605217844FFF74DFD3A46434603F0B2
:10575000B3F902460B46002E504659460CDA02F0C9
:1057600043FF22462B4603F0A7F901B022462B4601
:10577000BDE8F04F03F09EBA02F036FF22462B46FA
:1057800003F09AF91C4A7A4402EBC603D3E90023DA
:1057900003F082FB22462B4603F07EFB174A7A4435
:1057A00002EBC603D3E9002303F084FA009A002A2F
:1057B000B8BF81F00041BDE8F88F00000000104440
:1057C0000000F07F182D4454FB21F93FFB21F9BF65
:1057D0000000DC3F0000203E0000F33F0000F03FEF
:1057E0000000E63F008003400000F83F0000F0BFEB
:1057F000FA4F0000B84F0000564F00001E4F000047
:105800002DE9F04D9446CCF1000423F000464CEA1B
:105810000404524F46EAD4749A46884621F0004266
:10582000BC4206D8454240EA050442EAD474BC4270
:1058300004D9BDE8F04D6246FFF72CBDAAF14055F2
:10584000A5F17F6555EA0C040BD0022404EAAA7482
:10585000434DDFF810E144EAD87452EA000B04D05B
:105860000CE0BDE8F04DFFF7BBBE002C14BF012CCF
:10587000BDE8F08D022C30D0032C32D056EA0C0B50
:105880000AD0BE4220D1BA4209D126F0804622F089
:1058900080423346114617E000291ADB25E0DFF885
:1058A000C8B0FB44002C04BFDBE90001BDE8F08D6B
:1058B000012C02BFDBE9000181F00041BDE8F08D61
:1058C000022C0AD0032C0CD0BA4212D1B8F1000F2E
:1058D0000BDA23482549BDE8F08D28462449BDE868
:1058E000F08D28467146BDE8F08D1D482149BDE880
:1058F000F08D921B12153C2AC4BF19481D490EDCBD
:10590000BAF1000FBEBF12F13C0F0020014606DBCA
:10591000624602F025FF21F00041FFF761FE002CF6
:1059200008BFBDE8F08D012C04BF81F00041BDE847
:10593000F08D114A114B022C07D003F0ADFA2A4624
:10594000BDE8F04D0A4B03F0A7BA03F0A5FA2A46CA
:10595000BDE8F04D064B03F0ADB900000000F07F4C
:10596000182D4454FB2109C0B24E0000FB21F9BFA1
:10597000FB210940FB21F93F075C143326A6A13C1B
:105980002DE9F0410446E07800F0C006E07800F030
:105990003F05607800F0010098B1EF102846E91744
:1059A00005EB5171C910A5EBC101491C01F0FF08BD
:1059B0000B48006820B10A484146026838469047C3
:1059C00000BF607800F0080030B10548406818B1A9
:1059D000B011034A516888470020BDE8F0810000FB
:1059E0004017002010B56FF00400FEF77BFF104851
:1059F00000681049B0FBF1F00F4908700C480068CE
:105A00000C49B0FBF1F441F28830444305200B49C6
:105A100008804FF0E020006940F002004FF0E021E4
:105A2000086108464461006940F00100086110BD4A
:105A30000000002000127A00C2000020C4000020F4
:105A400070B504460F480078A0B10F48007888B9B7
:105A50000E480088844206DB0C48008894FBF0F571
:105A6000284600F01DF80948008894FBF0F100FB7F
:105A7000114084B24FF47A7104FB01F000F016F883
:105A800070BD00000E01002001010020C4000020B4
:105A900010B5FDF7FDFC10BD10B5FDF719FD10BDEB
:105AA00010B504462046FDF7EBFE10BD2DE9F0478A
:105AB000074600264FF0E020D0F8149011480078F7
:105AC00007FB00F800BFFFF7E3FF4FF0E020856918
:105AD00011E04FF0E0208469AC420CD0AC4202D21D
